:020000040000FA
:06080000C1EF2EF0120012
:020806001200DE
:06080800E4EF05F0120010
:02080E00FEFFEB
:060818001CEF04F01200C9
:02081E000200D6
:100820000E080000F601000002000000E15D00007B
:080830008002000050000000EE
:08083800D8CFE4FFE0CFE4FF9C
:10084000E46EDACFE4FFE2CFDAFFE9CFE4FFEACFEC
:10085000E4FFF6CFE4FFF7CFE4FFF5CFE4FFF3CFFB
:10086000E4FFF4CFE4FFFACFE4FF00EE1EF0140E35
:10087000E80403E3EECFE4FFFBD700EE32F00E0E08
:10088000E80403E3EECFE4FFFBD7E652CBEC19F02C
:100890009EA200D19E92030E406E0E50EA6A510F46
:1008A000E96E010EEA22EF50405C30E10E50E96E35
:1008B000EA6AD890E936EA36690EE926010EEA229C
:1008C000EECF40F0EFCF41F041C040F0416A4050E0
:1008D000D76E0E50E96EEA6AD890E936EA36690EAC
:1008E000E926010EEA22EECF40F0EFCF41F0405072
:1008F000D66EF28AF294D58E0E50EA6A510FE96EE6
:10090000010EEA22040EEF6E0E50106E020E406EC3
:100910000F50EA6A510FE96E010EEA22EF50405C77
:1009200049E10F50E96EEA6AD890E936EA36690E75
:10093000E926010EEA22EE50ED1009E10F50EA6AB5
:10094000510FE96E010EEA22010EEF6E33D0080E50
:100950000F5C0CE2070E0F14406E010E405204E0D3
:10096000E846FE0B4006FCE189121AD0100E0F5C1F
:100970000CE2070E0F14406E010E405204E0E846F0
:10098000FE0B4006FCE18A120BD0070E0F14406EDE
:10099000010E405204E0E846FE0B4006FCE18B12DB
:1009A0000F50EA6A510FE96E010EEA22030EEF6E54
:1009B0000F500E6E0F2A060E0F5C02E1080E04D0D7
:1009C000130E0F5C03E1160E0F6E04D0180E0F5CB1
:1009D00001E10F6A000ED8800254000E03542EE28B
:1009E000112A000E12220250115C0350125826E305
:1009F000116A126A030E065C1FE20450EA6A480F8D
:100A0000E96E010EEA2280CFEFFF0450EA6A4B0F35
:100A1000E96E010EEA2281CFEFFF0450EA6A4E0F21
:100A2000E96E010EEA2282CFEFFF042A030E045C76
:100A300001E3046A062A02D0026A036A000ED88023
:100A40000754000E085419E20C50000816E2132A4D
:100A5000000E14220750135C085014580EE3136A5A
:100A6000146A030E0B5C07E2092A030E095C01E31A
:100A7000096A0B2A02D0076A086A0C5000080AE2C9
:100A8000156A1550040DF328C26E9E9C9F9C9D8C88
:100A9000C280C2829EAC2BD09E9CC450456E446ADC
:100AA000C35000014410426E45C043F01550060D7E
:100AB000F3CF40F0F4CF41F0000E4026010E41226A
:100AC0000950020D4050F324E96E4150F420EA6EC3
:100AD00042C0EEFF43C0EDFF152A0C50155C02E347
:100AE0009D9C05D01550040DF328C26EC282F2A45D
:100AF00042D0D59EF294F29A040E406E1050EA6AEB
:100B0000510FE96E010EEA22EF50405C34E1080E0D
:100B1000105C0DE2070E1014406E010E405204E00E
:100B2000E846FE0B4006FCE1E81C89161CD0100EBE
:100B3000105C0DE2070E1014406E010E405204E0EE
:100B4000E846FE0B4006FCE1E81C8A160CD0070EB6
:100B50001014406E010E405204E0E846FE0B4006C1
:100B6000FCE1E81C8B161050EA6A510FE96E010E89
:100B7000EA22020EEF6EE55200EE3FF00E0EE804A0
:100B800003E3E5CFEDFFFBD700EE31F0140EE804F0
:100B900003E3E5CFEDFFFBD7E5CFFAFFE5CFF4FFA9
:100BA000E5CFF3FFE5CFF5FFE5CFF7FFE5CFF6FFA4
:100BB000E5CFEAFFE5CFE9FFE5CFDAFFE550E5CF86
:100BC000E0FFE5CFD8FF1000DACFE4FFE652A1A2A4
:100BD00033D0A1921D5017E01650B36E1750B26E6D
:100BE0001C2A1A501C5C28E31D6A0201801D89140E
:100BF000896E811D8A148A6E821D8B148B6E18502B
:100C0000B36E195017D01850B36E1950B26E1C2A1B
:100C10001B501C5C11E3010E1D6E020180518910F6
:100C2000896E81518A108A6E82518B108B6E16509C
:100C3000B36E1750B26E1C6AE552E5CFDAFF1100B1
:100C4000D9CFE6FFE1CFD9FF020EE126896A92688B
:100C50000F0EC16EC2900C6A070EB46E8A6A93685A
:100C60008B6A94688B908B929490949294840101F7
:100C7000010EE66F0101F669F7690A6A096A0B6AF3
:100C8000056A046A066A026A036A076A086A116AE0
:100C9000126A136A146A156ACA82CA80CA9CCA9AFE
:100CA000CA88CA96FA0ECB6EDF6ADFCF32F00C0E1E
:100CB000E76E3218E8AE02D0E73402D0E750325C7B
:100CC00036E2010EDB6ADBCF32F0030EE76E32183C
:100CD000E8AE02D0E73402D0E750325C26E2DFCF44
:100CE00032F0336A32BE3368060E3302F3CF33F08C
:100CF0003202F3CF32F0F4503326000E3226010ECA
:100D00003322010EDBCF34F0356A34BE3568D8901B
:100D10003436353632503424E96E33503520EA6E9D
:100D2000EE6AED6A010EDB2ACED7DF2ABED70101BB
:100D3000E06BE16BDE6BDF6BE26BE36BE46BE56B4F
:100D40000E6A0F6A106ADF6ADFCF32F0180EE76EA4
:100D50003218E8AE02D0E73402D0E750325C1BE232
:100D6000DFCFE9FFEA6AE9BEEA68D890E936EA36F9
:100D7000690EE926010EEA22EE6AED6ADFCFE9FF8D
:100D8000EA6AE9BEEA68510EE926010EEA22010E7E
:100D9000EF6EDF2AD9D7D586D59AD59CF294F29AF0
:100DA000F194D08ECA949D829F92F28EF28CCA8466
:100DB000B190020EE15C02E2E16AE552E16EE552B9
:100DC000E7CFD9FF1200D9CFE6FFE1CFD9FF050E5B
:100DD000E126020EDB6A030EDB6A040EDB6ACFEC4F
:100DE00018F00650000809E2BCEC0CF0052A030ECE
:100DF000055C01E1056A0606F4D70B50000809E21C
:100E0000E6EC0CF00A2A030E0A5C01E10A6A0B0602
:100E1000F4D7200E0001E76E6019E8AE02D0E73487
:100E200002D0E750605D01E2EAD16D50020B01E0B3
:100E3000E6D1400EE66E400EE66E020EE66E48EC1F
:100E400029F0E552E552E552E76E030EE7CFDBFFEE
:100E5000DB50000801E369D1040EDB6A030EDB50AE
:100E6000F36E040EDBCFF4FFF350F45C01E35DD1CD
:100E7000040EDB50EA6A400FE96E020EEA22EFCF61
:100E8000DFFF0201CB5110E0CC5100080DE201015F
:100E9000E051EA6A000FE96E070EEA22DFCFEFFFAA
:100EA000E02B0201CC0731D1C75144E10D0E326E67
:100EB000DF50325C05E00A0E336EDF50335C3AE1FE
:100EC000010EC76F0101E051EA6A000FE96E070EDB
:100ED000EA220D0EEF6EE02B010EDB6AE051F36E9D
:100EE000010EDBCFF4FFF350F45C1CE2010EDBCF0C
:100EF000E9FFEA6AE9BEEA68000EE926070EEA227F
:100F0000EF50E66E010EDBCFE9FFEA6AE9BEEA6860
:100F1000830EE926020EEA22E552E750EF6E010E3B
:100F2000DB2ADCD7F4D90201CB6BCC6B0101E06B7F
:100F3000E16BEBD01B0EDF5C09E1C35107E1010E51
:100F4000C36F1B0EC46FC56BC66BDFD0C3050BE14F
:100F50005B0EDF5C08E11B0EC45D05E1C55103E1DA
:100F60005B0EC56FD2D0C30566E1410EDF5C63E165
:100F70001B0EC45D60E15B0EC55D5DE1C46BC56BBE
:100F8000C66BC36B010EDB6ADBCFE9FFEA6AE9BE21
:100F9000EA68000EE926070EEA22EF500D081CE071
:100FA000010EDBCFE9FFEA6AE9BEEA68830EE926B3
:100FB000020EEA22EF50E66E010EDBCFE9FFEA6A8D
:100FC000E9BEEA68000EE926070EEA22E552E7507C
:100FD000EF6E010EDB2AD8D7010EDBCFE0F1010165
:100FE000E051EA6A000FE96E070EEA22EF6A230E6B
:100FF000326E570E336E346A32C0E6FFE66E34C08E
:10100000E6FF4FEC2DF0E552E552E552000EE66E9C
:10101000070EE66E200E326E570E336E346A32C003
:10102000E6FFE66E34C0E6FF4FEC2DF0356E050EA0
:10103000E15E35506AD0080EDF5C1CE10101E05131
:10104000000818E2E007E051EA6A000FE96E070EB7
:10105000EA22EF6A1D0E326E570E336E346A32C0CA
:10106000E6FFE66E34C0E6FF4FEC2DF0E552E552A8
:10107000E5524BD00D0EDF5C48E00A0EDF5C45E028
:10108000200EDF5C42E30201C46BC56BC66BC36B11
:101090000101E051EA6A000FE96E070EEA22DFCF94
:1010A000EFFF0201C76B0101E02B030EE05D0AE1D7
:1010B000420E0701005D06E1530E015D03E10201EE
:1010C000010ECB6F0201CB5120E0CC511EE1050E89
:1010D0000101E05D09E12C0E0701045D05E1300E20
:1010E000035D0201CC6F11D0060E0101E05D0DE140
:1010F0002C0E0701055D09E1300E035D0A0DF3CFEB
:10110000CCF2300E045D0201CC270101E051326EB9
:10111000336A000E321806E1010E331803E10D8622
:10112000E06BE16B040EDB2A99D60D5067E00DA051
:101130000FD0170E326E570E336E346A32C0E6FF90
:10114000E66E34C0E6FF4FEC2DF0E552E552E55275
:101150000DA40FD0FB0E326E560E336E346A32C0C1
:10116000E6FFE66E34C0E6FF4FEC2DF0E552E552A7
:10117000E5520DA60FD0DF0E326E560E336E346A76
:1011800032C0E6FFE66E34C0E6FF4FEC2DF0E552CC
:10119000E552E5520DA80FD0C00E326E560E336EDA
:1011A000346A32C0E6FFE66E34C0E6FF4FEC2DF045
:1011B000E552E552E5520DAC0FD09F0E326E560E41
:1011C000336E346A32C0E6FFE66E34C0E6FF4FECA1
:1011D0002DF0E552E552E5520DAE0FD0860E326E7F
:1011E000560E336E346A32C0E6FFE66E34C0E6FF58
:1011F0004FEC2DF0E552E552E5520D6A3FD8050E51
:10120000E15C02E2E16AE552E16EE552E7CFD9FF27
:101210001200D9CFE6FFE1CFD9FFE652DEC1DFFFF2
:10122000DF2A400E326EDF50325C01E1DF6A0101DD
:10123000DF51DF5C01E122D80101DE51EA6A000FD3
:10124000E96E020EEA22FE0EDBCFEFFFDE2B400E30
:10125000DE5D01E1DE6BDF51DE5D01E10D84FE0E3E
:10126000DBCF32F0336A32BE336832C0F3FF33C0B3
:10127000F4FFE552E552E7CFD9FF1200D9CFE6FFE0
:10128000E1CFD9FFE6520101DE51DF5D3BE0020113
:10129000D15103E046EC2AF0FAD70101DF51D880A2
:1012A000DE5517E2DF51DE5DDF6EDFCFE6FFDF5197
:1012B000336A000F326E020E332232C0E6FF33C0B3
:1012C000E6FFA8EC29F0E552E552E552DEC1DFF178
:1012D00017D0400ED880DF55DF6EDFCFE6FFDF513D
:1012E000336A000F326E020E332232C0E6FF33C083
:1012F000E6FFA8EC29F0E552E552E5520101DF6B6B
:1013000046EC2AF0E552E552E7CFD9FF1200D9CFDB
:10131000E6FFE1CFD9FF040EE126DE6ADD6A020EA8
:10132000DB6A030EDB6A0101E151EA6A000FE96E34
:10133000070EEA22EF50E66EE66A56EC2EF0E55212
:10134000E552020EF3CFDBFF0101E12BE151326EDA
:10135000336A000E321804E1010E331801E1E16B2B
:10136000020EDB50DE6EDD6AE151EA6A000FE96EC3
:10137000070EEA22EF502C0836E0E151EA6A000F2E
:10138000E96E070EEA22EF500D082DE0E151EA6AFE
:10139000000FE96E070EEA22EF50E66EE66A56ECA1
:1013A0002EF0E552E552030EF3CFDBFF0101E12BF6
:1013B000E151326E336A000E321804E1010E331827
:1013C00001E1E16B020EDBCF34F034C035F0346A5A
:1013D000030EDB5000013424326E000E3520336ED4
:1013E00032C0DEFFDD6E000EDFCF26F0010EDBCF58
:1013F00027F0460E261801E1275001E1FDD0490EE5
:10140000261802E1430E271801E1F3D0490E2618F1
:1014100002E1520E271801E1E9D0490E261802E137
:10142000530E271801E1DFD0530E261802E1430EB8
:10143000271801E1D5D0530E261802E1520E2718C5
:1014400001E1CBD0530E261802E1530E271801E11B
:10145000C1D0530E261802E1420E271801E1B7D081
:10146000430E261802E1420E271801E1ADD0430ECB
:10147000261802E1520E271801E1A3D04F0E2618BC
:1014800002E1420E271801E199D0570E261802E119
:101490004D0E271801E190D0520E261802E14D0E94
:1014A000271801E187D0440E261802E1500E2718B4
:1014B00001E17ED04F0E261802E1500E271875E08C
:1014C000490E261802E1500E27186DE0580E261816
:1014D00002E1540E271864E0540E261801E127504B
:1014E0005DE0410E261801E1275056E0560E261801
:1014F00001E127504FE0490E261801E1275048E04E
:101500004F0E261801E1275041E0550E261802E142
:10151000430E271839E0580E261802E1430E27180B
:1015200030E0430E261801E1275029E0520E26181C
:1015300001E1275022E0580E261802E1520E27182A
:1015400019E0030EDB505BE1020EDBCFE6FFE66A3B
:10155000DBCFE6FFE66A630E326E560E336E346AF8
:1015600032C0E6FFE66E34C0E6FF4FEC2DF0356E7C
:10157000070E63D095EC0FF062D097D860D02CD9CD
:101580005ED097EC0FF05BD094D859D09CD957D04F
:10159000F3D955D00BDA53D019DA51D0D2D84FD075
:1015A00093EC0FF04CD094DB4AD0EDEC0EF047D02A
:1015B000EADA45D0A6DA43D066DA41D0B9EC10F0C9
:1015C0003ED099EC0FF03BD04CEC10F038D012EC40
:1015D00012F035D0E2EC12F032D0E4EC12F02FD061
:1015E000E6EC12F02CD0E8EC12F029D0EAEC12F084
:1015F00026D0ECEC12F023D0EEEC12F020D0030E4B
:10160000DBCFE6FFE66A020EDBCFE6FFE66A030EFB
:10161000DBCFE6FFE66A020EDBCFE6FFE66A3B0EB3
:10162000326E560E336E346A32C0E6FFE66E34C058
:10163000E6FF4FEC2DF0356E0B0EE15E35500101EB
:10164000E151EA6A000FE96E070EEA22EF500D0839
:101650000DE00D500BE1520E326E336ADF5032183E
:1016600003E1DE52DD50331801E00D8EE0C1E1F1FF
:10167000040EE15C02E2E16AE552E16EE552E7CF79
:10168000D9FF12000101E6510FE0400E326E5D0EEF
:10169000336E346A32C0E6FFE66E34C0E6FF4FECCC
:1016A0002DF0E552E552E552120020EC06F042EF33
:1016B0000BF0D9CFE6FFE1CFD9FF030EE126E66AB2
:1016C000D9CFE6FFDACFE6FF010EE66E64EC16F046
:1016D000E552E552E552E552E66AD950010FE66E51
:1016E000000EDA20E66E020EE66E64EC16F0E552AD
:1016F000E552E552E5520D501AE1DF0417E1D950E9
:10170000010FE96EDACFEAFFEE50ED100AE0010EAC
:10171000326E336ADB50321808E1020EDB503318A8
:1017200004E1010EDBCFE6F101D00D8CABDF030E3F
:10173000E15C02E2E16AE552E16EE552E7CFD9FFF2
:101740001200D9CFE6FFE1CFD9FF030EE126020E4A
:10175000DB6AE66A000EE66E000EE66E030EE66ECB
:1017600064EC16F0E552E552E552E552E66AD950CE
:10177000020FE66E000EDA20E66E010EE66E64ECF5
:1017800016F0E552E552E552E5520D501BE1020E0E
:10179000DB500CE10050011003E1026A036A11D032
:1017A000CA8400C002F001C003F00BD00050011049
:1017B00003E1076A086A05D0CA8400C007F001C0C7
:1017C00008F060DF030EE15C02E2E16AE552E16EDF
:1017D000E552E7CFD9FF1200D9CFE6FFE1CFD9FF1D
:1017E000040EE126E66AD9CFE6FFDACFE6FF010E66
:1017F000E66E64EC16F0E552E552E552E552E66A13
:10180000D950010FE66E000EDA20E66E010EE66E8C
:1018100064EC16F0E552E552E552E552E66AD9501D
:10182000020FE66E000EDA20E66E010EE66E64EC44
:1018300016F0E552E552E552E552E66AD950030F3B
:10184000E66E000EDA20E66E010EE66E64EC16F02F
:10185000E552E552E552E5520D502BE1DF50926E14
:10186000010EDB50936E020EDB50946E030EDB50C4
:101870000D0805E20D0EF36E030EF3CFDBFF030E32
:10188000DB5005E10F0EC16EC2900C6A11D00C6ADC
:10189000C26A030EDBCFE6FF0F0EE552D880E75495
:1018A000C16EBE0EC06EC280030EDB500C6ECA84C9
:1018B000E9DE040EE15C02E2E16AE552E16EE55226
:1018C000E7CFD9FF1200D9CFE6FFE1CFD9FF020E53
:1018D000E126E66AD9CFE6FFDACFE6FF010EE66E33
:1018E00064EC16F0E552E552E552E552E76E010E62
:1018F000E7CFDBFF0D5036E1010EDB5002E1DF5098
:10190000896E010EE66ED9CFE6FFDACFE6FFE66E0E
:1019100064EC16F0E552E552E552E552E76E010E31
:10192000E7CFDBFF0D501EE1010EDB5002E1DF507F
:101930008A6E010EE66ED9CFE6FFDACFE6FFE66EDD
:1019400064EC16F0E552E552E552E552E76E010E01
:10195000E7CFDBFF0D5006E1010EDB5002E1DF5067
:101960008B6E90DE020EE15C02E2E16AE552E16E0E
:10197000E552E7CFD9FF12008250E66EE66A815049
:10198000E66EE66A8050E66EE66A280E326E560E05
:10199000336E346A32C0E6FFE66E34C0E6FF4FECC9
:1019A0002DF0356E090EE15E35501200480E326E94
:1019B0005D0E336E346A32C0E6FFE66E34C0E6FF79
:1019C0004FEC2DF0E552E552E5521200D9CFE6FF7B
:1019D000E1CFD9FFE652DF6A260E326E560E336E25
:1019E000346A32C0E6FFE66E34C0E6FF4FEC2DF0FD
:1019F000E552E552E552DF6A0C50DF5C30E2DFCFA2
:101A000032F0336A32BE3368060E3302F3CF33F05E
:101A10003202F3CF32F0F4503326000E3226010E9C
:101A200033220A50020D3250F324E96E3350F42071
:101A3000EA6EEECFE6FFEFCFE6FF200E346E560ED5
:101A4000356E366A34C0E6FFE66E36C0E6FF4FEC10
:101A50002DF0376E050EE15E3750DF2ACDD7450EEB
:101A6000326E5D0E336E346A32C0E6FFE66E34C00D
:101A7000E6FF4FEC2DF0E552E552E552E552E55216
:101A8000E7CFD9FF1200D9CFE6FFE1CFD9FF030E90
:101A9000E126E66AD9CFE6FFDACFE6FFE66E64EC30
:101AA00016F0E552E552E552E552E66AD950020FCA
:101AB000E66E000EDA20E66E010EE66E64EC16F0BD
:101AC000E552E552E552E5520D5011E1DECF32F01C
:101AD000DDCF33F0000E325C100E335807E2DECF5C
:101AE000E9FFDDCFEAFF020EDBCFEFFFCBDD030E18
:101AF000E15C02E2E16AE552E16EE552E7CFD9FF2F
:101B00001200D9CFE6FFE1CFD9FF030EE126E66A46
:101B1000D9CFE6FFDACFE6FFE66E64EC16F0E552C9
:101B2000E552E552E5520D5024E1DECF32F0DDCF33
:101B300033F0000E325C100E335807E2DECFE9FFBF
:101B4000DDCFEAFF020EEFCFDBFF020EDBCFE6FFB9
:101B5000E66A160E326E560E336E346A32C0E6FFF7
:101B6000E66E34C0E6FF4FEC2DF0356E050EE15EFB
:101B70003550030EE15C02E2E16AE552E16EE552A6
:101B8000E7CFD9FF1200D9CFE6FFE1CFD9FF030E8F
:101B9000E126E66AD9CFE6FFDACFE6FF050EE66E6C
:101BA00064EC16F0E552E552E552E552E66AD9508A
:101BB000010FE66E000EDA20E66E010EE66E64ECB2
:101BC00016F0E552E552E552E552E66AD950020FA9
:101BD000E66E000EDA20E66E010EE66E64EC16F09C
:101BE000E552E552E552E5520D5068E1020EDB5038
:101BF000010861E3010EDB5007085DE3410E326E20
:101C0000DF50325C1AE1020EDB500CE1010EF36E84
:101C1000DB5004E0D890F336E806FCE1F350F31C07
:101C200092164BD0010EF36EDB5004E0D890F336E1
:101C3000E806FCE1F350921240D0420E326EDF50C3
:101C4000325C1AE1020EDB500CE1010EF36EDB5048
:101C500004E0D890F336E806FCE1F350F31C931649
:101C60002CD0010EF36EDB5004E0D890F336E8067A
:101C7000FCE1F350931221D0430E326EDF50325C00
:101C80001AE1020EDB500CE1010EF36EDB5004E0B2
:101C9000D890F336E806FCE1F350F31C94160DD00F
:101CA000010EF36EDB5004E0D890F336E806FCE159
:101CB000F350941202D00D8C01D0E4DC030EE15CF1
:101CC00002E2E16AE552E16EE552E7CFD9FF120088
:101CD000D9CFE6FFE1CFD9FF030EE126020EDB6A82
:101CE000E66AD9CFE6FFDACFE6FF050EE66E64ECD2
:101CF00016F0E552E552E552E552E66AD950010F79
:101D0000E66E000EDA20E66E010EE66E64EC16F06A
:101D1000E552E552E552E5520D5055E1010EDB501A
:101D2000070836E3410E326EDF50325C0BE1010EE4
:101D3000F36EDB5004E0D890F336E806FCE1F35094
:101D400080141FD0420E326EDF50325C0BE1010E68
:101D5000F36EDB5004E0D890F336E806FCE1F35074
:101D600081140FD0430E326EDF50325C11E1010E50
:101D7000F36EDB5004E0D890F336E806FCE1F35054
:101D80008214E76E020EE7CFDBFFDB5008E002D0E3
:101D90000D8C19D0010EF36E020EF3CFDBFF020E95
:101DA000DBCFE6FFE66A0D0E326E560E336E346AF6
:101DB00032C0E6FFE66E34C0E6FF4FEC2DF0356E24
:101DC000050EE15E3550030EE15C02E2E16AE55288
:101DD000E16EE552E7CFD9FF1200D9CFE6FFE1CFA0
:101DE000D9FF030EE126E66AD9CFE6FFDACFE6FF98
:101DF000050EE66E64EC16F0E552E552E552E5524A
:101E0000E66AD950010FE66E000EDA20E66E010E8A
:101E1000E66E64EC16F0E552E552E552E552E66AEC
:101E2000D950020FE66E000EDA20E66E010EE66E65
:101E300064EC16F0E552E552E552E5520D5069E1C9
:101E4000020EDB50010861E3010EDB5007085DE381
:101E5000410E326EDF50325C1AE1020EDB500CE1B3
:101E6000010EF36EDB5004E0D890F336E806FCE197
:101E7000F350F31C89164BD0010EF36EDB5004E0D7
:101E8000D890F336E806FCE1F350891240D0420EB8
:101E9000326EDF50325C1AE1020EDB500CE1010EB3
:101EA000F36EDB5004E0D890F336E806FCE1F35023
:101EB000F31C8A162CD0010EF36EDB5004E0D89090
:101EC000F336E806FCE1F3508A1221D0430E326E5D
:101ED000DF50325C1AE1020EDB500CE1010EF36EB2
:101EE000DB5004E0D890F336E806FCE1F350F31C35
:101EF0008B160DD0010EF36EDB5004E0D890F33654
:101F0000E806FCE1F3508B1202D00D8C02D042ECBB
:101F10000BF0030EE15C02E2E16AE552E16EE5528C
:101F2000E7CFD9FF120042EF0BF042EF0BF042EF88
:101F30000BF0D9CFE6FFE1CFD9FF040EE126E66A28
:101F4000D9CFE6FFDACFE6FF050EE66E64EC16F0B9
:101F5000E552E552E552E552E66AD950010FE66EC8
:101F6000000EDA20E66E010EE66E64EC16F0E55225
:101F7000E552E552E552E66AD950020FE66E000ED0
:101F8000DA20E66E030EE66E64EC16F0E552E552DA
:101F9000E552E5520D5076E1D950020FE96EDACFE5
:101FA000EAFF720ED880EE542E0EED5441E3D95064
:101FB000020FE96EDACFEAFFEE50ED101FE0356850
:101FC0003668376A2D0EE76E020EDBCF38F0030E4F
:101FD000DBCF39F0E7503826000E39223A6A385004
:101FE000355C326E39503658336E3A503758346E4D
:101FF000020E32C0DBFF030E33C0DBFF010EDB50ED
:10200000070816E3410E326EDF50325C02E1DF6AF0
:1020100011D0420E326EDF50325C02E1080E06D063
:10202000430E326EDF50325C03E1100EDF6E02D0E1
:102030000D8C28D0010EDB50DF24E96EEA6AD890BF
:10204000E936EA36690EE926010EEA22020EDBCFF6
:10205000EEFF030EDBCFEDFF010EDB50DF24EA6A5B
:10206000510FE96E010EEA22EF040AE1010EDB5086
:10207000DF24EA6A510FE96E010EEA22020EEF6ECA
:1020800042EC0BF0040EE15C02E2E16AE552E16E23
:10209000E552E7CFD9FF1200D9CFE6FFE1CFD9FF54
:1020A000050EE126E66AD9CFE6FFDACFE6FF010E9C
:1020B000E66E64EC16F0E552E552E552E552E66A4A
:1020C000D950020FE66E000EDA20E66E010EE66EC3
:1020D00064EC16F0E552E552E552E552E66AD95055
:1020E000030FE66E000EDA20E66E010EE66E64EC7B
:1020F00016F0E552E552E552E552E66AD950010F75
:10210000E66E000EDA20E66E010EE66E64EC16F066
:10211000E552E552E552E552E66AD950040FE66E03
:10212000000EDA20E66E010EE66E64EC16F0E55263
:10213000E552E552E5520D5012E1DFCFD9F1020E22
:10214000DBCFDBF1010EDBCFDAF1030EDBCFDCF10D
:10215000040EDBCFDDF1D9C189FF42EC0BF0050E97
:10216000E15C02E2E16AE552E16EE552E7CFD9FFB8
:102170001200D9CFE6FFE1CFD9FF040EE126030E0E
:10218000DB6A0101E151EA6A000FE96E070EEA22FB
:10219000EF502C081DE00101E151EA6A000FE96EE1
:1021A000070EEA22EF50E66EE66AE60E326E550E34
:1021B000336E346A32C0E6FF33C0E6FF34C0E6FF58
:1021C0004FEC2DF0356E050EE15E35500D8A20D1B5
:1021D0000101E12B0101E151326E336A000E321828
:1021E00002E1010E331802E10101E16BD9C189FF5F
:1021F0000101DA1D8914326E891C0101DA153210D1
:10220000E76E010EE7CFDBFF0101E151EA6A000F43
:10221000E96E070EEA22EF500D0801E1F7D0010147
:10222000E151EA6A000FE96E070EEA22EF50E66E0E
:10223000E66A56EC2EF0E552E552020EF3CFDBFFD4
:10224000300EF36E020EDBCFF4FFF350F45C0FE3BD
:10225000020EDB5039080BE3300E326E020EDBCF7C
:10226000E7FF3250E75E020EE7CFDBFF19D0410EE9
:10227000F36E020EDBCFF4FFF350F45C0FE3020EBB
:10228000DB5046080BE3370E326E020EDBCFE7FF62
:102290003250E75E020EE7CFDBFF02D00D8CB8D0E4
:1022A000020EDB38F00BDF6E0101E12B0101E15181
:1022B000326E336A000E321802E1010E331802E169
:1022C0000101E16B0D0E326E0101E151EA6A000F6E
:1022D000E96E070EEA22EF50325C02E10D8898D0D9
:1022E0000101E151EA6A000FE96E070EEA22EF50A0
:1022F000E66EE66A56EC2EF0E552E552020EF3CF9A
:10230000DBFF300EF36E020EDBCFF4FFF350F45C14
:102310000FE3020EDB5039080BE3300E326E020E73
:10232000DBCFE7FF3250E75E020EE7CFDBFF19D0CD
:10233000410EF36E020EDBCFF4FFF350F45C0FE3BB
:10234000020EDB5046080BE3370E326E020EDBCF77
:10235000E7FF3250E75E020EE7CFDBFF02D00D8CC5
:1023600057D0020EDB50DF24DF6E0101E12B0101AB
:10237000E151326E336A000E321802E1010E331859
:1023800002E10101E16BDF508A6E010EDB50896EC4
:102390000101DD5105E0DDC1E6FFDDEC2EF0E55287
:1023A000D9C189FF0101DC5130E0030EDCC1DBFF44
:1023B0000101D9510101DB15326E0101DB5180149D
:1023C000325C0BE1030EDB5008E00000000000006F
:1023D00000000000030EDB06EBD7030EDCC1DBFFC1
:1023E0000101D9510101DB15326E0101DB5180146D
:1023F000325C0BE0030EDB5008E000000000000040
:1024000000000000030EDB06EBD7FED642EC0BF01B
:10241000040EE15C02E2E16AE552E16EE552E7CFCB
:10242000D9FF1200D9CFE6FFE1CFD9FF050EE12693
:10243000030EDB6A040EDB6AE66AD950040FE66E0F
:10244000000EDA20E66E010EE66E64EC16F0E55240
:10245000E552E552E552040EDB5004E0040EDB5079
:10246000380802E20D8CA4D00101E151EA6A000FA4
:10247000E96E070EEA22EF502C081DE00101E15140
:10248000EA6A000FE96E070EEA22EF50E66EE66A8E
:10249000E60E326E550E336E346A32C0E6FF33C03C
:1024A000E6FF34C0E6FF4FEC2DF0356E050EE15E21
:1024B00035500D8A7DD00101E12B0101E151326ED1
:1024C000336A000E321802E1010E331802E10101F5
:1024D000E16BD9C189FF0101DA1D8914326E891CB3
:1024E0000101DA153210E76E010EE7CFDBFF040EB3
:1024F000DB505CE00101E151EA6A000FE96E070E72
:10250000EA22EFCFDFFF0101E12B0101E151326E41
:10251000336A000E321802E1010E331802E10101A4
:10252000E16B040EDB06DF508A6E010EDB50896E14
:102530000101DD5105E0DDC1E6FFDDEC2EF0E552E5
:10254000D9C189FF0101DC5130E0030EDCC1DBFFA2
:102550000101D9510101DB15326E0101DB518014FB
:10256000325C0BE1030EDB5008E0000000000000CD
:1025700000000000030EDB06EBD7030EDCC1DBFF1F
:102580000101D9510101DB15326E0101DB518014CB
:10259000325C0BE0030EDB5008E00000000000009E
:1025A00000000000030EDB06EBD7A1D742EC0BF0D6
:1025B000050EE15C02E2E16AE552E16EE552E7CF29
:1025C000D9FF120042EF0BF042EF0BF042EF0BF09D
:1025D00042EF0BF042EF0BF042EF0BF0D9CFE6FFEA
:1025E000E1CFD9FF0F0EE126320EF36E0C0EF3CFC2
:1025F000DBFF010EF36E0D0EF3CFDBFF010EF36E6A
:102600000E0EF3CFDBFFE66AD950080FE66E000E20
:10261000DA20E66E030EE66E57DBE552E552E55230
:10262000E552D950080FE96EDACFEAFFEE50ED100F
:1026300012E1010EE66ED9500A0FE66E000EDA20A6
:10264000E66E050EE66E40DBE552E552E552E552D8
:10265000010EE66E0FD0E66AD9500A0FE66E000E44
:10266000DA20E66E050EE66E2FDBE552E552E55206
:10267000E552E66AD9500B0FE66E000EDA20E66EE0
:10268000010EE66E21DBE552E552E552E552010E00
:10269000E66ED9500C0FE66E000EDA20E66E010EE3
:1026A000E66E12DBE552E552E552E5520D5001E0CF
:1026B00001D3D950080FE96EDACFEAFFEE50ED10E2
:1026C00031E1B190A092410E0101E95D0CE1010EF2
:1026D000E8C1E7FFE75204E0E846FE0BE706FCE14D
:1026E000E81C8916E5D2420EE95D0CE1010EE8C155
:1026F000E7FFE75204E0E846FE0BE706FCE1E81CD2
:102700008A16D6D2430EE95D01E0D2D2010EE8C1AD
:10271000E7FFE75204E0E846FE0BE706FCE1E81CB1
:102720008B16C6D2080EDBCF36F0090EDBCF37F0A2
:10273000386A396A640E296E2A6A2B6A2C6A36C096
:1027400024F037C025F038C026F039C027F01EEC41
:102750002EF020C036F021C037F022C038F023C060
:1027600039F00C0EDBCF32F0336A346A356A296AED
:102770001B0E2A6EB70E2B6E2C6A32C024F033C0AB
:1027800025F034C026F035C027F01EEC2EF020C016
:1027900032F021C033F022C034F023C035F020C025
:1027A00024F021C025F022C026F023C027F036C037
:1027B00029F037C02AF038C02BF039C02CF098EC43
:1027C0002BF024C0DEFF25C0DEFF26C0DEFF27C0C1
:1027D000DDFFDD52DD52080EDBCF36F0090EDBCF18
:1027E00037F0386A396A640E296E2A6A2B6A2C6AB5
:1027F00036C024F037C025F038C026F039C027F0A5
:102800001EEC2EF020C036F021C037F022C038F088
:1028100023C039F00C0EDBCFE6FF640EE552D88002
:10282000E754326E336A346A356A296A1B0E2A6E9F
:10283000B70E2B6E2C6A32C024F033C025F034C0A2
:1028400026F035C027F01EEC2EF020C032F021C05B
:1028500033F022C034F023C035F020C024F021C072
:1028600025F022C026F023C027F036C029F037C05B
:102870002AF038C02BF039C02CF098EC2BF0040E65
:1028800024C0DBFF050E25C0DBFF060E26C0DBFFE4
:10289000070E27C0DBFFD9CFE9FFDACFEAFFD880E8
:1028A000FF0EEE54FF0EEE54000EEE54000EEE54EA
:1028B00023E2800EF36E0D0EF3CFDBFFD9CFE9FFDD
:1028C000DACFEAFFEECF24F0EECF25F0EECF26F000
:1028D000EFCF27F0800E296E2A6A2B6A2C6A7CECD7
:1028E0002EF024C0DEFF25C0DEFF26C0DEFF27C09D
:1028F000DDFFDD52DD5205D0010EF36E0D0EF3CF7C
:10290000DBFFD9CFE9FFDACFEAFF280EEE5C000E3D
:10291000EE58000EEE58000EEE5807E2280EDE6E5E
:10292000DE6ADE6ADD6ADD52DD52D950040FE96EDF
:10293000DACFEAFFD880FF0EEE54FF0EEE54000E01
:10294000EE54000EEE5425E2800EF36E0E0EF3CF21
:10295000DBFF040EDBCF24F0050EDBCF25F0060EE7
:10296000DBCF26F0070EDBCF27F0800E296E2A6A18
:102970002B6A2C6A7CEC2EF0040E24C0DBFF050EC3
:1029800025C0DBFF060E26C0DBFF070E27C0DBFFDE
:1029900005D0010EF36E0E0EF3CFDBFFD950040FFE
:1029A000E96EDACFEAFF280EEE5C000EEE58000E5C
:1029B000EE58000EEE580BE2280EF36E040EF3CF25
:1029C000DBFF050EDB6A060EDB6A070EDB6A040E10
:1029D000DBCF32F0050EDBCF33F0060EDBCF34F069
:1029E000070EDBCF35F0140E325E000E335A345A28
:1029F000355A040E32C0DBFF050E33C0DBFF060E76
:102A000034C0DBFF070E35C0DBFFD9CFE9FFDACFDB
:102A1000EAFFEECF32F0EECF33F0EECF34F0EFCF6F
:102A200035F0140E325E000E335A345A355A32C025
:102A3000DFFF010E33C0DBFF020E34C0DBFF030EED
:102A400035C0DBFF0B0EDB50070801E296D0000E0D
:102A5000F36E0C0EDBCFF4FFF350F45C01E28DD08B
:102A60000C0EDB50630801E288D0B1B069D00201DE
:102A7000806B816B826B410E326E0A0EDB50325CD2
:102A800019E1010EF36E0B0EDB5004E0D890F33623
:102A9000E806FCE1F350F31C9216010EF36E0B0EE8
:102AA000DB5004E0D890F336E806FCE1F350020175
:102AB00080133DD0420E326E0A0EDB50325C19E1BB
:102AC000010EF36E0B0EDB5004E0D890F336E806EF
:102AD000FCE1F350F31C9316010EF36E0B0EDB506A
:102AE00004E0D890F336E806FCE1F35002018113CC
:102AF0001ED0430E326E0A0EDB50325C3EE1010EF8
:102B0000F36E0B0EDB5004E0D890F336E806FCE1E0
:102B1000F350F31C9416010EF36E0B0EDB5004E021
:102B2000D890F336E806FCE1F350020182130B0E55
:102B3000DBCFE8F10A0EDBCFE9F1010E1D6E1C6A56
:102B4000D9CFE9FFDACFEAFFD880FF0EEE54FF0EAF
:102B5000EE54000EEE54000EEE540FE3D950040F65
:102B6000E96EDACFEAFFD880FF0EEE54FF0EEE5486
:102B7000000EEE54000EEE5402E20D8C9BD036682F
:102B80003768386A396AD9CFE9FFDACFEAFFEE5001
:102B9000365C326EEE503758336EEE503858346E25
:102BA000EE503958356E32C0DFFF010E33C0DBFF07
:102BB000020E34C0DBFF030E35C0DBFF366837681A
:102BC000386A396AD950040FE96EDACFEAFFEE505D
:102BD000365C326EEE503758336EEE503858346EE5
:102BE000EE503958356E040E32C0DBFF050E33C08F
:102BF000DBFF060E34C0DBFF070E35C0DBFFF29EA5
:102C0000D9CFE9FFDACFEAFFEECF32F0EECF33F0E3
:102C1000EECF34F0EFCF35F0080ED89035323432A5
:102C200033323232E806F9E13250166ED9CFE9FF7D
:102C3000DACFEAFFEECF32F0EECF33F0EECF34F062
:102C4000EFCF35F03250176E040EDBCF32F0050EA9
:102C5000DBCF33F0060EDBCF34F0070EDBCF35F0E1
:102C6000080ED8903532343233323232E806F9E188
:102C70003250186E040EDBCF32F0050EDBCF33F08E
:102C8000060EDBCF34F0070EDBCF35F03250196E75
:102C90000D0EDB501A6E0E0EDB501B6EF28EB1B0B5
:102CA00007D0B192B198B19AA282A192A082B180CC
:102CB00042EC0BF00F0EE15C02E2E16AE552E16EDC
:102CC000E552E7CFD9FF1200D9CFE6FFE1CFD9FF18
:102CD000040EE126030EDB6A0D0E326E0101E15196
:102CE000EA6A000FE96E070EEA22EF50325C05E156
:102CF000FB0EDB5044E10D8842D0E151EA6A000F3F
:102D0000E96E070EEA22EF502C081FE0FB0EDB50A5
:102D10001AE1E151EA6A000FE96E070EEA22EF506C
:102D2000E66EE66AE60E326E550E336E346A32C0D7
:102D3000E6FFE66E34C0E6FF4FEC2DF0356E050E73
:102D4000E15E35500D8A020E90D1E12BE151326ED9
:102D5000336A000E321804E1010E331801E1E16B11
:102D60000D0E326EE151EA6A000FE96E070EEA229B
:102D7000EF50325C06E1FB0EDB5001E10D88030EE3
:102D800074D12D0E326EE151EA6A000FE96E070E22
:102D9000EA22EF50325C27E1040E336EFE0EDB5068
:102DA000335C21E0050E346EFE0EDB50345C1BE01C
:102DB000FE0EDB0401E12FD1030E326EFE0EDB505E
:102DC000325C01E128D1010EF36E030EF3CFDBFF7D
:102DD000E12BE151326E336A000E321804E1010E2C
:102DE000331801E1E16B040E326EFE0EDB50325CF3
:102DF00011E0050E336EFE0EDB50335C0BE0050E6A
:102E0000E66ED9CFE6FFDACFE6FF3BD9E552E552D1
:102E1000E5523DD0E151EA6A000FE96E070EEA2261
:102E2000EFCF32F0336A346A32C0DFFF010E33C0B5
:102E3000DBFF020E34C0DBFF050E326EFE0EDB50F0
:102E4000325C19E1000EDFCFE6FF010EDBCFE6FFBB
:102E500056EC2EF0E552E552F3CF32F0F4CF33F0DA
:102E6000346A33BE346832C0DFFF010E33C0DBFF8B
:102E7000020E34C0DBFF0101E12BE151326E336AF7
:102E8000000E321804E1010E331801E1E16B030E6C
:102E9000DB501DE0DFCF32F0010EDBCF33F0020E4E
:102EA000DBCF34F02A682B682C6832C025F033C0A1
:102EB00026F034C027F0CCEC2BF022C032F022C038
:102EC000DFFF010E23C0DBFF020E24C0DBFFFE0E7E
:102ED000DB5026E1DFCF32F0010EDBCF33F0020E04
:102EE000DBCF34F03434000E341807E6D8807F0E80
:102EF0003254000E3354000E345401E28CD0D9CF3A
:102F0000E9FFDACFEAFF020ED880EB50FF0A06E6AF
:102F1000800EEE5CFF0EEE58FF0EEF5801E27BD004
:102F2000FE0EDB0424E1DFCF35F0010EDBCF36F0FF
:102F3000020EDBCF37F03734000E371807E6D880A3
:102F4000FF0E3554000E3654000E375464E3D9CFCB
:102F5000E9FFDACFEAFF020ED890EB50000A06E64E
:102F6000000EEE5C000EEE58000EEF5854E3020E19
:102F7000386EFE0EDB50385C24E1DFCF39F0010EF5
:102F8000DBCF3AF0020EDBCF3BF03B34000E3B18B8
:102F900007E6D880FF0E39547F0E3A54000E3B549A
:102FA0003AE3D9CFE9FFDACFEAFF020ED880EB503F
:102FB000FF0A06E6000EEE5C800EEE58FF0EEF589C
:102FC0002AE3030E3C6EFE0EDB503C5C27E1DFCFB4
:102FD0003DF0010EDBCF3EF0020EDBCF3FF03F3481
:102FE000000E3F1807E6D880FF0E3D54FF0E3E54FA
:102FF000000E3F5410E3D9CFE9FFDACFEAFF020E0B
:10300000D890EB50000A06E6000EEE5C000EEE587B
:10301000000EEF5803E20D8C010E27D0FE0EDB50A0
:10302000030A16E0010A14E0030A08E0050A06E0B4
:10303000010A04E0050A02E0040E17D0FC0EDBCF03
:10304000E9FFFD0EDBCFEAFF000EDFCFEFFF0CD074
:10305000FC0EDBCFE9FFFD0EDBCFEAFF000EDFCF7A
:10306000EEFF010EDBCFEDFF000E326E040EE15CD1
:1030700002E2E16AE552E16E3250E552E7CFD9FF54
:103080001200D9CFE6FFE1CFD9FF020EE126FD0EF7
:10309000DBCFE9FFFE0EDBCFEAFFEE6AEE6AEE6AF7
:1030A000010EDB6AFC0EDB50F36E010EDBCFF4FF8A
:1030B000F350F45C53E20101E151EA6A000FE96E5A
:1030C000070EEA22EFCFDFFF300EDF5C42E3DF5076
:1030D00039083FE3FD0EDBCFE9FFFE0EDBCFEAFF51
:1030E000EECF35F0EECF36F0EFCF37F00A0E2A6E86
:1030F0002B6A2C6A35C025F036C026F037C027F081
:10310000CCEC2BF0300EDF5C386E396A3A6A225014
:103110003824326E23503920336E24503A20346ED6
:10312000FD0EDBCFE9FFFE0EDBCFEAFF32C0EEFF84
:1031300033C0EEFF34C0EEFF0101E12BE151326EEE
:10314000336A000E321807E1010E331804E1E16B17
:1031500002D0000E04D0010EDB2AA4D7010E326E7D
:10316000020EE15C02E2E16AE552E16E3250E552A4
:10317000E7CFD9FF12000650E66EE66ADA0E326E2D
:10318000550E336E346A32C0E6FFE66E34C0E6FF99
:103190004FEC2DF0356E050EE15E3550120000014A
:1031A000605108E0010E326E6D50020B01E0010E1D
:1031B000325C1BE10201CD07000ECE5BCF510BE16B
:1031C000CD51CE1111E18B80D00ECD6F070ECE6F99
:1031D000010ECF6F1200CD51CE114DE18B90D00E6C
:1031E000CD6F070ECE6FCF6B1200600509E0020EA7
:1031F000605D06E0040E605D03E0100E605D02E1BC
:103200008B801200200E605D36E10201CD07000EBA
:10321000CE5BCF510AE1CD51CE112DE18B80100E46
:10322000CD6F270ECE6F010E18D0CF050AE1CD511C
:10323000CE1121E18B90100ECD6F270ECE6F020EB6
:103240000CD0020ECF5D0BE1CD51CE1114E18B807D
:10325000A00ECD6F860ECE6F030ECF6F1200030E41
:10326000CF5D09E3CD51CE1106E18B90100ECD6FED
:0E327000270ECE6FCF6B120082A4010C000C53
:02327E00D9CFA6
:10328000E6FFE1CFD9FFE652A09A6A6A686A706ADF
:10329000030EE66EE66AE66A710EE66E0F0EE66EE5
:1032A00002EC2DF0326E050EE15E3250160E6F6E9E
:1032B0009F0E6B6E7B0E696EDF6ADF50326E336A73
:1032C000100E325C000E335810E2DF50040DF3CFC5
:1032D000E9FFF4CFEAFF000EE926040EEA22EE6AC7
:1032E000EE6AEE6AEE6ADF2AE8D76D8C6E6A6D9838
:1032F0006D9C68A607D0689600017B6B806B816B24
:10330000826BF7D70001010E966F976F986B996BE0
:10331000886BDF6A040EDF5C26E2EA6ADF34FE0BAC
:10332000EA36E96E6F0EE926000EEA22EE6AED6AD1
:10333000EA6ADF34FE0BEA36E96E670EE926000E14
:10334000EA22EE6AED6ADF50EA6A8C0FE96E000E3F
:10335000EA22EF6ADF50EA6A900FE96E000EEA2275
:10336000EF6ADF2AD7D70001080E6F6F040E706F67
:10337000160E706E0401400E026F040E036F400EB5
:10338000016F840E006F0001616B606BE552E552C6
:10339000E7CFD9FF1200D9CFE6FFE1CFD9FFE65240
:1033A0000001600507E16DBA05D0686A6980698827
:1033B000020E606F6850040B05E06950040B02E0D8
:1033C0006894BFD86DB250D06850010B09E06950C5
:1033D000010B06E054DFA08A0001040E606F6890C4
:1033E0006850100B05E06950100B02E095D8689802
:1033F00068AC12D069AC0FD0010EE66EE66A000E22
:10340000E66EE66A730EE66EE66A68EC2CF0326EE3
:10341000060EE15E3250689C6850200B04E0695053
:10342000200B01E060D86850020B13E06950020BDA
:1034300010E0010EE66EE66A000EE66EE66AE668E9
:103440007F0EE66E68EC2CF0326E060EE15E3250B6
:103450006A6A040E0001E76E6019E8AE02D0E73434
:1034600002D0E750605D02E2A19A38D069A635D05B
:10347000DF6A040EDF5C31E268A62FD06CCF89F0E2
:1034800000018951780BE842E842E8428A6F689669
:1034900089B506D08A51EA6A900FE96E000E05D010
:1034A0008A51EA6A8C0FE96E000EEA22EF708A51A7
:1034B00002E15ED810D0000EE66EE66A890EE66E76
:1034C000000EE66E720EE66EE66A68EC2CF0326E66
:1034D000060EE15E3250DF2ACCD7A19AE552E552C2
:1034E000E7CFD9FF120070A015D063C0E9FF64C018
:1034F000EAFFEF5080080DE16FC0E9FF70C0EAFFFE
:10350000EF50840806E163C0E9FF64C0EAFF8C0E57
:10351000EF6E7090689A1200698468986D8200015D
:10352000010E886F000EE66EE66AE66EE66A750EBC
:10353000E66EE66A68EC2CF0326E060EE15E325002
:1035400012000001886B000EE66EE66AE66EE66A1F
:10355000740EE66EE66A68EC2CF0326E060EE15EE2
:1035600032506D92699468A402D06894FCD712001E
:10357000D9CFE6FFE1CFD9FFE652FD0E0001891554
:1035800053E17E0E8915E8407F0B040DF3CF63F005
:10359000F4CF64F0000E6327040E642363C065F06B
:1035A00064C066F0657563C0E9FF64C0EAFFEF5070
:1035B0003C0BE842E8420D0835E1DF6A080EDF5CAB
:1035C00023E263C0E9FF64C0EAFF020EE926000EB1
:1035D000EA22EE50EFCFEAFFE96EEF50E66EDF50E1
:1035E000EA6A400FE96E040EEA22E552E750EF6EF8
:1035F00063C0E9FF64C0EAFF020EE926000EEA227A
:10360000EE2AEF22DF2ADAD763C0E9FF64C0EAFFBF
:10361000020EE926000EEA22400EEE6E040EED6E5A
:103620000DD807D03AD805D0FD0E8915040801E160
:1036300059D8E552E552E7CFD9FF12000001776B68
:10364000956B986B996B8B6B786B6FC0E9FF70C053
:10365000EAFFEF9E6F756FC0E9FF70C0EAFFEF9E53
:103660006F7565C0E9FF66C0EAFFEF9E7B6B7C6B00
:103670007D6B806B816B826B8CD8000EE66EE66A88
:10368000E66EE66A030EE66EE66A68EC2CF0326ED1
:10369000060EE15E3250ADEF1EF0020E0001785DC5
:1036A00002E16DEF1FF0786B8B511AE165C0E9FF05
:1036B00066C0EAFFEE52400EEF6E65C0E9FF66C0DD
:1036C000EAFF020EE926000EEA22400EEE6E040E1C
:1036D000ED6E65C0E9FF66C0EAFF8C0EEF6E12006A
:1036E0008B6B1200D9CFE6FFE1CFD9FFE6526FC056
:1036F000E9FF70C0EAFFEF50400B01E0010EDF6E02
:1037000000016F75080E605D08E142C46EFF6E50E7
:1037100002E0100E01D0040E606F780526E16FC044
:10372000E9FF70C0EAFF020EE926000EEA22480E09
:10373000EE6E040EED6E72DB020E0001775D06E1A7
:103740006FC0E9FF70C0EAFF840E0DD0DF5006E1C4
:103750006FC0E9FF70C0EAFFC80E05D06FC0E9FF77
:1037600070C0EAFF880EEF6E0FD080AF0CD083518F
:10377000841107E005D084C0FAFF00018351F96E7F
:10378000FADF0001809F786BE552E552E7CFD9FF61
:10379000120004014051600BE842E842E842E8426E
:1037A000E842000901E0120041510C0A50E00B0A06
:1037B0003FE00C0A31E0010A22E00B0A1EE0020A97
:1037C0001CE0030A18E0080A10E0010A0CE00F0AE6
:1037D00008E0030A01E0120000017B8F080E606F11
:1037E0001200EFEF1DF00CEF20F00001610E796F79
:1037F000000E7A6F0CD04CEF1EF028EF1CF04451F5
:103800000001796F7A6B620E7927000E7A237B8133
:10381000010E7C6F7B8F120000017B8F04014451ED
:10382000EA6A620FE96E000EEA2242C4EFFF12005C
:10383000000EE66EE66AE66EE66A020EE66EE66A7E
:1038400068EC2CF0326E060EE15E3250120012006F
:10385000D9CFE6FFE1CFD9FF050EE12604014205ED
:1038600010E140511F0B00090CE100017B8F030E9A
:103870000401415D04E10001010E876F02D00001E7
:10388000876B0401425101E011D140511F0B020826
:1038900001E00CD144510F0B000901E107D1445163
:1038A0000F0B030801E202D1200E0001605D01E070
:1038B000FDD07B8F040144BF16D044510F0BE96E3D
:1038C000EA6AD890E936EA36670EE926000EEA225F
:1038D000EECFDEFFEDCFDDFF44510F0BEA6A900F14
:1038E000E96E000E15D044510F0BE96EEA6AD890CC
:1038F000E936EA366F0EE926000EEA22EECFDEFF49
:10390000EDCFDDFF44510F0BEA6A8C0FE96E000E1C
:10391000EA22020EEFCFDBFFD950020FE96EDACFB9
:10392000EAFFEF50010B03E1000EDF9401D0DF84CA
:1039300044BF0BD044510F0BE96EEA6AD890E936C8
:10394000EA36670EE926000E0AD044510F0BE96EE5
:10395000EA6AD890E936EA366F0EE926000EEA22C6
:10396000DECFEEFFDDCFEDFF030E415D20E1DECFC8
:10397000E9FFDDCFEAFFEF50800B11E044BF07D035
:1039800044510F0BEA6A900FE96E000E06D04451C5
:103990000F0BEA6A8C0FE96E000EEA22EF82840EAA
:1039A000DECFE9FFDDCFEAFFE850EF127FD0DF7412
:1039B000DECFE9FFDDCFEAFFEF50800B1BE0DECF6B
:1039C000E9FFDDCFEAFFEF9EDECFE9FFDDCFEAFFC3
:1039D000EF8C020EE66EE66ADECFE6FFDDCFE6FF95
:1039E000050EE66EE66A68EC2CF0326E060EE15EBD
:1039F000325005D0DECFE9FFDDCFEAFFEF8CDF7478
:103A0000D950020FE96EDACFEAFFEF50020B07E15F
:103A1000DECFE9FFDDCFEAFFEF50800B2BE00401A2
:103A200044BF07D044510F0BEA6A900FE96E000EB5
:103A300006D044510F0BEA6A8C0FE96E000EEA22A1
:103A4000EF923B0E326EDECFE9FFDDCFEAFFE850AA
:103A5000EF16020EE66EE66ADECFE6FFDDCFE6FF8A
:103A6000050EE66EE66A68EC2CF0326E060EE15E3C
:103A7000325007D03B0EDECFE9FFDDCFEAFFE85042
:103A8000EF16040144510F0B336A700F326E0F0EA4
:103A90003322030E32C0DBFF040E33C0DBFF030E04
:103AA000DBCFE9FF040EDBCFEAFFEF90050EE15C10
:103AB00002E2E16AE552E16EE552E7CFD9FF12007A
:103AC000000196514DE1010E966F975149E1010EAB
:103AD000976F020E785D0DE16FC0E9FF70C0EAFFDD
:103AE000EE52EF6A6FC0E9FF70C0EAFFC80EEF6EDA
:103AF0001200780535E18B6B63C0E9FF64C0EAFF13
:103B0000EE52400EEF6E63C0E9FF64C0EAFF020EA2
:103B1000E926000EEA22400EEE6E040EED6E63C042
:103B2000E9FF64C0EAFF840EEF6E010E8B6F65C083
:103B3000E9FF66C0EAFFEE52400EEF6E65C0E9FF96
:103B400066C0EAFF020EE926000EEA22400EEE6E83
:103B5000040EED6E65C0E9FF66C0EAFF800EEF6EF1
:103B600012000001986B996B020E785D18E165C038
:103B7000E9FF66C0EAFFEE52400EEF6E65C0E9FF56
:103B800066C0EAFF020EE926000EEA22480EEE6E3B
:103B9000040EED6E65C0E9FF66C0EAFF1DD07C51E2
:103BA0000401465D00017D510401475904E246C409
:103BB0007CF047C47DF032D96FC0E9FF70C0EAFFE6
:103BC000020EE926000EEA22480EEE6E040EED6E9D
:103BD0006FC0E9FF70C0EAFFC80EEF6E1200800EE2
:103BE0000401405D58E10001C00E7B6F04014351A8
:103BF000030A2FE0010A09E0030A4BE10001BA0EB3
:103C0000796F5B0E7A6F120E3ED04251F66EF76AF4
:103C1000D890F636F736330EF6265C0EF7220900FA
:103C2000F5CF79F00A00F5CF7AF0020E0001F76ABD
:103C30007925F66E7A51F7220800F5CF7CF0030E55
:103C4000F76A7925F66E7A51F7220800F5CF7DF0F4
:103C50001200030E425D1AE24251F66EF76AD890E6
:103C6000F636F736350EF6265C0EF7220900F5CF4C
:103C700079F00A00F5CF7AF079C0F6FF7AC0F7FF45
:103C80000800F55000017C6F7D6B120000017B6B1A
:103C9000120000017B6B1200D9CFE6FFE1CFD9FF04
:103CA000020EE1260401486B496B40511F0B020ACA
:103CB00011E0030A0CE0010A3CE100017B8F0401E2
:103CC00048810001870535E10401488332D00001B5
:103CD0007B8F2FD000017B8F040144BF0BD0445158
:103CE0000F0BE96EEA6AD890E936EA36670EE926E4
:103CF000000E0AD044510F0BE96EEA6AD890E936FB
:103D0000EA366F0EE926000EEA22EECFDEFFEDCF97
:103D1000DDFFDECFE9FFDDCFEAFFEF50800B09E0EA
:103D2000DECFE9FFDDCFEAFFEF50040B02E0010E2A
:103D3000486F00017BAF07D0480E796F040E7A6F91
:103D40007B81020E7C6F020EE15C02E2E16AE552C9
:103D5000E16EE552E7CFD9FF12006D9800017BBFFD
:103D60002BD080AF09D0020E786F995101E1F9DEB6
:103D70000001976B966B120065C0E9FF66C0EAFF11
:103D8000EE52400EEF6E65C0E9FF66C0EAFF020E1C
:103D9000E926000EEA22400EEE6E040EED6E65C0BE
:103DA000E9FF66C0EAFF8C0EEF6E6FC0E9FF70C0DE
:103DB000EAFF840EEF6E1200040140AF0DD0000147
:103DC000010E786F985101E1CCDE0001976B966B84
:103DD000955123E160EF1DF00001020E786F65C080
:103DE000E9FF66C0EAFFEE52400EEF6E65C0E9FFE4
:103DF00066C0EAFF020EE926000EEA22400EEE6ED1
:103E0000040EED6E65C0E9FF66C0EAFF840EEF6E3A
:103E1000976B966B955101E153DE1200D9CFE6FF07
:103E2000E1CFD9FFE652400EDF6E00017C5D000E4F
:103E30007D590AE27CC0DFFF775102E1010E03D019
:103E4000770502E1020E776FDF50336AE8507C5D40
:103E50007C6F33507D597D6F6FC0E9FF70C0EAFF02
:103E6000EE52DFCFEFFF480E856F040E866F7BB1F9
:103E700018D0DF502DE079C0F6FF7AC0F7FF792B1C
:103E8000000E7A230800F550E66E85C0E9FF86C073
:103E9000EAFF852B000E8623E552E750EF6EDF0622
:103EA000E8D7DF5015E079C0E9FF7AC0EAFF792B47
:103EB000000E7A23EF50E66E85C0E9FF86C0EAFF68
:103EC000852B000E8623E552E750EF6EDF06E9D71B
:103ED000E552E552E7CFD9FF1200D9CFE6FFE1CF97
:103EE000D9FF020EE12663C0E9FF64C0EAFFEE528B
:103EF000EFCFDFFFDFCF32F032500001815D000EE7
:103F0000825902E281C0DFFFDF50326E336AE8502F
:103F1000815D816F33508259826F010EDB6ADF5001
:103F2000F36E010EDBCFF4FFF350F45C16E2010EEA
:103F3000DB50EA6A480FE96E040EEA22EF50E66EA3
:103F40007EC0E9FF7FC0EAFF7E2B000E7F23E55293
:103F5000E750EF6E010EDB2AE2D7000ED8808155C4
:103F6000000E825527E265C0E9FF66C0EAFFEE5207
:103F7000400EEF6E65C0E9FF66C0EAFF020EE9265B
:103F8000000EEA22480EEE6E040EED6E63C0E9FFED
:103F900064C0EAFFEF50400B06E165C0E9FF66C070
:103FA000EAFFC80E05D065C0E9FF66C0EAFF880ECB
:103FB000EF6E28D065C0E9FF66C0EAFFEE52400E02
:103FC000EF6E65C0E9FF66C0EAFF020EE926000E4B
:103FD000EA22400EEE6E040EED6E65C0E9FF66C08B
:103FE000EAFF840EEF6E8351841107E005D084C090
:103FF000FAFF00018351F96EFADF0001809F9551AD
:1040000001E15EDD020EE15C02E2E16AE552E16E91
:10401000E552E7CFD9FF1200D9CFE6FFE1CFD9FFB4
:10402000E65200017B8F030EE66EE66AE66A710EC9
:10403000E66E0F0EE66E02EC2DF0326E050EE15EBE
:104040003250DF6ADF50326E336A100E325C000E7F
:10405000335810E2DF50040DF3CFE9FFF4CFEAFF4D
:10406000000EE926040EEA22EE6AEE6AEE6AEE6AB5
:10407000DF2AE8D76D8CDF6A040EDF5C10E2DF50C8
:10408000EA6A8C0FE96E000EEA22EF6ADF50EA6AF4
:10409000900FE96E000EEA22EF6ADF2AEDD7010EDB
:1040A000E66EE66AE66A620EE66E000EE66E02EC08
:1040B0002DF0326E050EE15E32506D9C0001080E4F
:1040C0006F6F040E706F000E636F040E646F63C039
:1040D00065F0666F42C461F0615102E1100E12D0CA
:1040E000010EE66EE66A610EE66E000EE66E010EE9
:1040F000E66EE66A68EC2CF0326E060EE15E325037
:104100000001200E606FE552E552E7CFD9FF1200A3
:10411000D9CFE6FFE1CFD9FF020EE126000EDE6E19
:10412000040EDD6EFD0EDB50E824346EFE0EDB5017
:10413000040DF3503424040DF4CF33F0D9CFE9FF4C
:10414000DACFEAFFF350EE263350ED22DECFE9FF5F
:10415000DDCFEAFFEF9EFD0EDB500AE1FE0EEA6ABC
:10416000DB34FE0BEA36E96E670EE926000E09D055
:10417000FE0EEA6ADB34FE0BEA36E96E6F0EE926C4
:10418000000EEA22DECFEEFFDDCFEDFFDECFE9FF4E
:10419000DDCFEAFFEF9CDECFE9FFDDCFEAFF040EC3
:1041A000E926000EEA22EF8C020EE15C02E2E16AEF
:1041B000E552E16EE552E7CFD9FF1200D9CFE6FF15
:1041C000E1CFD9FF020EE126FD0EDBA407D0E66A9F
:1041D000FE0EDBCFE6FF9CDFE552E552FD0EDBA2D3
:1041E00008D0010EE66EFE0EDBCFE6FF91DFE55252
:1041F000E552FE0EDB50336A700F326E0F0E332223
:1042000032C0DEFF33C0DDFFDECFE9FFDDCFEAFFE6
:10421000FD0EDBCFEFFF020EE15C02E2E16AE55248
:10422000E16EE552E7CFD9FF1200D9CFE6FFE1CF2B
:10423000D9FF020EE126FE0EDB5020E165C0E9FF4A
:1042400066C0EAFFEE52400EEF6E65C0E9FF66C041
:10425000EAFF020EE926000EEA22400EEE6E040E80
:10426000ED6E65C0E9FF66C0EAFF8C0EEF6E6FC0B1
:10427000E9FF70C0EAFF840EEF6E3BD0FD0EDB500D
:10428000E824346EFE0EDB50040DF3503424040D8C
:10429000F3CF32F0F4CF33F0000E3226040E332287
:1042A00032C0DEFF33C0DDFF840EDECFE9FFDDCF9D
:1042B000EAFFE850EF12FD0EDB50E824346EFE0EEC
:1042C000DB50040DF3503424010F040DF3CF32F012
:1042D000F4CF33F0000E3226040E332232C0DEFF5C
:1042E00033C0DDFF840EDECFE9FFDDCFEAFFE8500B
:1042F000EF12020EE15C02E2E16AE552E16EE55284
:10430000E7CFD9FF1200D9CFE6FFE1CFD9FF020EE8
:10431000E126FD0EDB500AE0FE0EEA6ADB34FE0BFE
:10432000EA36E96E6F0EE926000E09D0FE0EEA6A43
:10433000DB34FE0BEA36E96E670EE926000EEA2250
:10434000EECFDEFFEDCFDDFFD9CFE9FFDACFEAFF19
:10435000EE50ED1003E1F36AF46A44D0DECFE9FFDA
:10436000DDCFEAFF020EE926000EEA22FB0EDBCFCC
:10437000EEFFFC0EDBCFEDFFDECFE9FFDDCFEAFF86
:10438000EE52FA0EDBCFEFFF400EDECFE9FFDDCFBE
:10439000EAFFE850EF16880EDECFE9FFDDCFEAFF37
:1043A000E850EF12FD0EDB500AE0FE0EEA6ADB3445
:1043B000FE0BEA36E96E6F0EE926000E09D0FE0EFE
:1043C000EA6ADB34FE0BEA36E96E670EE926000E78
:1043D000EA22EF74DECF32F0DDCF33F032C0F3FFEC
:1043E00033C0F4FF020EE15C02E2E16AE552E16EE5
:1043F000E552E7CFD9FF1200D9CFE6FFE1CFD9FFD1
:104400006DA84ED0FE0EEA6ADB34FE0BEA36E96E8A
:104410006F0EE926000EEA22EE50EFCFEAFFE96EBA
:10442000400EEE16EE6AEE6AEE6AFE0EEA6ADB34C3
:10443000FE0BEA36E96E6F0EE926000EEA22EE5018
:10444000EFCFEAFFE96EEE7CFE0EEA6ADB34FE0B8C
:10445000EA36E96E6F0EE926000EEA22EF74400E8E
:10446000326EFE0EEA6ADB34FE0BEA36E96E6F0E40
:10447000E926000EEA22EE50EFCFEAFFE96E325055
:10448000EF16FE0EEA6ADB34FE0BEA36E96E6F0EBB
:10449000E926000EEA22EE50EFCFEAFFE96EEF7C4C
:1044A000E552E7CFD9FF12006D6A696A0001606BBF
:1044B00012000001605113E16D6A696A160E6F6E99
:1044C0009F0E6B6E7B0E696ED08EA29AA08AF28EC2
:1044D0006DB602D06D86FCD70001010E606F120030
:1044E000ACEC27F0FB0EDBCFF3FFDB06F35000094B
:1044F0000AE0FAEC27F0FA0E65EC28F0F3E1331C41
:10450000F1E1010E01D0000EDBEF27F0ACEC27F05B
:104510003B0EE12402E3E168E652E16E010EDB6A44
:10452000020EDB6AF90EDBCFF6FFFA0EDBCFF7FFE8
:10453000FB0EDBCFF8FF0800F550DF6EDF5002E125
:10454000FFEF26F0250EDF5C02E0F2EF26F0030E0F
:10455000DB6A040EDB6A050EDB6A060EDB6A070EF9
:10456000DB6A14EC27F02D0EDF5C0CE02B0EDF5C19
:1045700009E0200EDF5C06E0230EDF5C03E0300E76
:10458000DF5C1AE1DF50300A14E0130A0FE0030A7F
:104590000AE00B0A05E0060AE4E1030EDB80E1D73E
:1045A000030EDB82DED7030EDB84DBD7030EDB8654
:1045B000D8D7030EDB88D5D72A0EDF5C1BE110ECC1
:1045C00027F05EEC27F010E0030EDB8026682768FA
:1045D000130EDBCF2BF0140EDBCF2CF015EC2CF0F0
:1045E000040E24C0DBFF03D0130E47EC27F014ECBD
:1045F00027F00BD0090EDB6AB5EC27F003E029ECBD
:1046000028F0FAD7090E47EC27F0030EDBB0DB9851
:104610002E0EDF5C1BE114EC27F02A0EDF5C0BE1B1
:1046200010EC27F05EEC27F003E1130E99EC27F075
:1046300014EC27F00BD0090EDB6AB5EC27F003E091
:1046400029EC28F0FAD7090E99EC27F0680EDF5C08
:1046500007E114EC27F0680EDF5C1DE1030E18D0B3
:10466000740EDF5C17E07A0EDF5C14E0480EDF5C4E
:1046700006E0540EDF5C03E05A0EDF5C02E1020E3E
:1046800007D06C0EDF5C03E06A0EDF5C04E1010E14
:10469000ECEC27F0C9DBDF506E0A01E17FD31E0A84
:1046A00001E192D1200A01E18FD13F0A01E149D114
:1046B0001A0A01E146D10D0A01E143D1200A01E1C4
:1046C00040D13A0A01E13DD1200A01E13AD1260A5E
:1046D00001E135D10D0A01E132D11A0A01E1D9D047
:1046E000200A4AE0300A1FE0460A0EE0250A01E0EF
:1046F00083D3D950F90FE96EFF0EDA20EA6E010E6E
:10470000EE5E000EEE5AEE5AFAEC27F0250EE66E3B
:1047100095DB03E1331C01E169D3F6EC27F001E2FC
:104720006BD3DB2A69D3080EDB6A040EDB50010869
:1047300006E2040EDB04BEEC27F0DB508BDB080E38
:10474000DB5009E0030EDB50010B05E172DB01E0F9
:104750004DD3080EDB6A64DBEFCFDFFF6EEC28F091
:1047600003E1331C01E142D3F6EC27F001E3DB2A3D
:1047700060DB01E141D33AD3070EDB5002080FE1C1
:104780003AEC28F0030E01EC28F00E0EEECFDBFF22
:104790000F0EEECFDBFF100EEECFDBFF20D0F70EBB
:1047A000DBCF35F0F80EDBCF36F0020E355E000EB3
:1047B000365AF70E35C0DBFFF80E36C0DBFF35C0CA
:1047C000E9FF36C0EAFFF1EC27F0346A0E0E32C082
:1047D000DBFF0F0E33C0DBFF100E34C0DBFF0E0E0D
:1047E000DBCFE6FF0F0EDBCFE6FF100EDBCFE6FFE1
:1047F0002AEC2DF0E552E552E552130E25C0DBFF01
:10480000140E26C0DBFF060EDB5005E0130E35EC60
:1048100028F001E26ADB59EC28F002E2130E37DBE4
:104820001CEC28F006E0040E35EC28F002E2050E40
:104830002EDB030EDBB005D0FCDA01E0D7D2080E88
:10484000DB6A090EDB6A0E0EDBCFF6FF0F0EDBCF45
:10485000F7FF100EDBCFF8FF0800F550DF6EDF50DA
:1048600014E05FEC28F011E26EEC28F003E1331C59
:1048700001E1BCD2BBDB01E3DB2A090EDB2AD95004
:104880000E0FE96E000ECBDBE7D7D3DA01E1B4D22D
:10489000ADD2C6DA110EEECFDBFF120EEDCFDBFF8D
:1048A000110EDBCFE6FF120EDBCFE6FF1CEC2DF086
:1048B000E552E552130EF3CFDBFF140EF4CFDBFF0E
:1048C000060EDB5004E0130ED0DB01E20EDB59ECE8
:1048D00028F002E2130EDBDAAFDB05E0040EC5DBE5
:1048E00002E2050ED4DA030EDBB005D0A2DA01E055
:1048F0007DD2080EDB6A090EDB6A110EDBCFE9FF01
:10490000120EDBCFEAFFEFCFDFFFDF5014E0D7DB83
:1049100012E2E4DB03E1331C01E168D267DB01E36F
:10492000DB2A090EDB2A110EDB2ADBCFE9FF120E90
:10493000E8E3DB2AE6D77DDA01E15ED257D2030E47
:10494000DB8E070EDB0410E195DB040E5ADB0A0E4A
:10495000EECFDBFF0B0EEECFDBFF0C0EEECFDBFF5F
:104960000D0EEECFDBFF6CD0070EDB5003082CE101
:10497000030EDBAE0DD0B2DA020E76DAEFCF32F0F4
:10498000336A346A356A32AE39D03368346835D028
:10499000F70EDBCF33F0F80EDBCF34F0020E335ED0
:1049A000000E345AF70E33C0DBFFF80E34C0DBFFC5
:1049B00033C0E9FF34C0EAFFEFCF32F00A0E32C055
:1049C000DBFF0B0EDB6A38D0070EDB50020809E173
:1049D000030EDBAE04D059DB34AE10D00ED055DB65
:1049E0000DD0030EDBAE12D079DA020E3DDAF9DA21
:1049F000346A356A33AE02D034683568E2DA0C0EB8
:104A000034C0DBFF0D0E35C0DBFF1AD0F70EDBCF55
:104A100034F0F80EDBCF35F0020E345E000E355A5E
:104A2000F70E34C0DBFFF80E35C0DBFF34C0E9FF02
:104A300035C0EAFFD6DAC5DA0C0EDB6A0D0EDB6A8A
:104A4000060EDB5005E1010EF36E050EF3CFDBFF22
:104A5000150EDB6A160EDB6AD950370F326E000E68
:104A6000DA20336E390E32C0DBFF3A0E33C0DBFF83
:104A7000380EDB6A080EDB6A0A0EAEDADF50780AFF
:104A800012E0200A10E0280A0CE0200A0AE03F0A9F
:104A900006E00D0A02E0200A08E1020E05D0080E29
:104AA00003D0080EDF26100E97DA030EDBBE02D00D
:104AB000DB92DB94DB50800B24E08ADAD890030E83
:104AC000EB50000A08E6000EEE5C000EEE58000EF9
:104AD000EE58000EEE5815E213DA29682A682B68A2
:104AE0002C681EEC2EF00A0E20C0DBFF0B0E21C03E
:104AF000DBFF0C0E22C0DBFF0D0E23C0DBFF2D0EF3
:104B000008D0030EDBA202D02B0E03D0DBA408D00A
:104B1000200EF36E170EF3CFDBFF150EDB2A02D04B
:104B2000170EDB6A050EDB5003E1B7D901E189D02E
:104B3000D00E326E5D0E336E000E346E070EDBCF7C
:104B400035F0366A376A386A35C029F036C02AF03F
:104B500037C02BF038C02CF0D3D97CEC2EF032507B
:104B60002024F36E33502120F46E34502220F86E4E
:104B7000F4CFF7FFF3CFF6FF0800090EF5CFDBFF08
:104B8000580EDF5C0FE1610EF36E090E7BD90AE36C
:104B9000200E326E090EDBCFE7FF3250E75E090EC2
:104BA000E7CFDBFF070EDBCF32F0336A346A356ABA
:104BB0000FDA32C029F033C02AF034C02BF035C0F0
:104BC0002CF0EECF24F0EECF25F0EECF26F0EFCF95
:104BD00027F07CEC2EF027C0EDFF26C0EDFF25C0AE
:104BE000EDFF24C0EFFF390EDBCFE9FFDB063A0E05
:104BF000DBCFEAFF01E2DB06090EDBCFEFFF150E8C
:104C0000DB2A4BD995E1030EDBA61DD06F0EDF5CCE
:104C100006E1C1D918E3150EDB285BDA14D0780E53
:104C2000DF5C09E0580EDF5C06E0620EDF5C03E04B
:104C3000420EDF5C08E1020EF36E160EF3CFDBFFCF
:104C400002D0150EDB6A030EDB50100B0EE0040ED3
:104C5000DBCF32F0050EDB50D880325406E2060E70
:104C6000DB5003E1040EDB5034DA95D90AE2050E7D
:104C7000DBCFE7FF150EDB50E75E050EE7CFDBFF6E
:104C800002D0050EDB6A040EDBCF32F0160E45D9DA
:104C9000D880325414E2160EDBCFE6FF150EDBCFC0
:104CA000E6FF040EDBCFE6FF050EDB50E552E75CC6
:104CB000E552D880E754E552D880E7545FD9030E17
:104CC000DB50010B0BE1080EDB5008E0B2D801E02D
:104CD0008DD0080EDB50BED8080EDB6A170EDB50F5
:104CE00007E088D9170EF1D903E1331C01E17ED02A
:104CF000160EDB5016E07ED9300EE66E9FD802E12C
:104D0000331C74E077D9DFCFE6FF9BEC2DF0E55242
:104D1000E552E552F4CF33F00001F31C02E1331CFD
:104D200065E0050EDBCF32F0160EDB50D880325432
:104D300009E2050EDBCFE7FF160EDB50E75E050E3E
:104D4000E7CFDBFF300EE66E050ECBD94FE1390E13
:104D5000DB2ADBCFE9FF3A0E01E3DB2ADBCFEAFFF8
:104D6000090EEFCFDBFFDB500EE044D9090EADD9C1
:104D700002E1331C3BE0390EDB2ADBCFE9FF3A0EC0
:104D8000EDE3DB2AEBD755D831E1160EDBCFE6FF9A
:104D9000080EC3D8E552E7245DD82ED0070EDB50AD
:104DA000030A1CE0010A14E0030A07E07BD9DBCF09
:104DB000EEFF020EDBCFEDFF1FD0F5D8376A35AE20
:104DC00002D0366837682CD8BCD837C0EEFF14D074
:104DD000EAD835BE366824D8B4D80ED063D9DBCF34
:104DE000EFFF0AD07BD905E1331C03E1F368F468D7
:104DF00010D0FCD801E3DB2A79D99BEF22F0010E19
:104E0000DBCF32F0020EDBCF33F032C0F3FF33C022
:104E1000F4FF3B0EE15C02E2E16AE552E16ECBD0C9
:104E200029D9020E01EF28F061D90800F550DF6E94
:104E30001200200EE66E080E71EF28F09BEC2DF0AC
:104E4000E552E552E552F3CF32F0F4CF33F00001F2
:104E5000F31C1200326E336AD950010F4DD9325013
:104E6000EE263350ED221200365E000E375AF70E52
:104E700036C0DBFFF80E37C0DBFF36C0E9FF37C0B6
:104E8000EAFF1200DBCFF4FFF350F45C1200DB50BA
:104E9000E76E040EE7CFDBFF12000A0EDBCF32F025
:104EA0000B0EDBCF33F00C0EDBCF34F00D0EDBCF6F
:104EB00035F032503310341035101200130EEECF8F
:104EC000DBFF140EEDCFDBFF130EDBCF32F0140E41
:104ED000DBCF33F00001800E33141200F70EDBCF6E
:104EE00036F0F80EDBCF37F01200050EDB50E66E21
:104EF000D950130F01D9E552E750EE6EED6A12005A
:104F00000A0EDBCF24F00B0EDBCF25F00C0EDBCF2F
:104F100026F00D0EDBCF27F01200DBCFE6FF150EDB
:104F2000DBCFE6FF050EDB50E552E724E552E72430
:104F30001200DB50CED8010EF36E060EF3CFDBFF6E
:104F40001200EE50EFCFEAFFE96E34C0EEFF35C03D
:104F5000EEFF36C0EEFF1200D9CFE6FFDACFE6FF54
:104F6000E1CFD9FFE2CFDAFF1200DFCFE6FFE66A3A
:104F70006AEC2EF0E552E552F3501200E76E080E8F
:104F8000E7CFDBFF1200EECF32F0EECF33F0EFCF02
:104F900034F0356A1200050EDBCF32F0150EDB500F
:104FA000D88032541200010EDBCF34F0020EDBCF7A
:104FB00035F0366A1200E552E5CFDAFFE7CFD9FFC8
:104FC00012000A0E32C0DBFF0B0E33C0DBFF1200F3
:104FD000D9500A0F7CEF28F0F36E070EF3CFDBFFFA
:104FE0001200EECF32F0EFCF33F01200010EDB2AC9
:104FF000020E1200FC0EDBCFE6FFFD0EDBCFE6FF5C
:105000001200325E000E335AF70E32C0DBFFF80E8C
:1050100033C0DBFF32C0E9FF33C0EAFF1200DA2001
:10502000EA6EEF2AEECFF6FF000EEF22EECFF7FF8B
:10503000EF22EECFF8FF1200040EDBCFE6FF130ED7
:10504000DB50E552E75C9ADFDB5004DF060EDB50F5
:105050001200090EDB500A0DF350DF24D00FE76E6B
:10506000090EE7CFDBFF14EF27F0DB50F36E050EE0
:1050700042EF27F0F70EDBCF32F0F80EDBCF33F044
:105080001200DFCFE6FF1EEF27F028DF030EECDE75
:10509000C3EF27F070EC22F0E552E552E552E552FD
:1050A00000091200BDDEEE50EFCFEAFFE96E010EFF
:1050B0001200130EDB50F36E040E42EF27F0040EC5
:1050C000DB50F36E090E42EF27F0DBCFE6FF1EEF59
:1050D00027F0E76E050EE7CFDBFF12008BDF41EF15
:1050E00028F0DBCFE6FF86DF4AEF28F0D950F90F32
:1050F000E96EFF0E0FEF28F0E96E000EDA20EA6E7F
:0251000012009B
:0E510200040140511F0B010801E01200405152
:10511000600BE842E842E842E842E842010801E068
:105120001200445103E0440501E012004151220AFB
:1051300031E0030A24E0010A15E0210A0DE0010A2A
:1051400001E012000001E10E796F020E7A6F080E85
:105150007C6F7D6B7B8121D00001E10E796F020EA7
:105160007A6F1BD046C481F047C482F00001880EDC
:105170007E6F050E7F6F836B846B808F1200000142
:10518000880E796F050E7A6F070E7C6F7D6BC10EEE
:105190007B6F120042C4DCF200017B8F120005011C
:1051A000886B4B0E896F8A6B8B6B8C6B8D6B080ECB
:1051B0008E6F0201D06B1A0EE66E020EE66EDEEC0A
:1051C00020F0E552E5521E0EE66E030EE66EDEECB2
:1051D00020F0E552E552400EE66E080EE66E050E32
:1051E000E66EE66A030EE66E83EC21F0326E050E83
:1051F000E15E3250F3CFD8F2F4CFD9F20201DA6B8C
:10520000DB6BD16B1200D9CFE6FFE1CFD9FFFD0EEA
:10521000DBCF26F0FE0EDBCF27F0050E261801E1CE
:10522000275002E0000E30D0FB0EDBCF32F0FC0E38
:10523000DBCF33F00201D851321816E1D9513318BF
:1052400013E1400EE66E080EE66E050EE66EE66AA7
:10525000030EE66E83EC21F0326E050EE15E3250F5
:10526000F3CFD8F2F4CFD9F2FB0EDBCF32F0FC0E45
:10527000DBCF33F00201DA51321805E1DB5133188C
:1052800002E1D16BD66B010EE552E7CFD9FF1200D8
:10529000D9CFE6FFE1CFD9FF0201D06BD851D911A8
:1052A00002E1000E08D0D8C2E9FFD9C2EAFFEF50F0
:1052B000800B01E0010E000945E1FC0EDBCF32F06E
:1052C000D8C2E9FFD9C2EAFFEE52EF50D88032547B
:1052D00008E2D8C2E9FFD9C2EAFFEE52FC0EEFCFD6
:1052E000DBFFD06BFC0EDB50D05D19E2D051EA6AD7
:1052F000080FE96E050EEA22EF50E66ED051E76E18
:10530000FD0EDBCFE9FFFE0EDBCFEAFFE750E9261B
:10531000000EEA22E552E750EF6ED02BE3D7400EA5
:10532000E66E080EE66E050EE66EE66A030EE66EA3
:1053300083EC21F0326E050EE15E3250F3CFD8F2ED
:10534000F4CFD9F20201D051E552E7CFD9FF1200D4
:10535000D9CFE6FFE1CFD9FFA09A0201D1510CE1EC
:10536000FD0EDBCFD2F2FE0EDBCFD3F2FC0EDBCF95
:10537000D6F2010ED76FD16FA08AE552E7CFD9FFE1
:105380001200D9CFE6FFE1CFD9FF030EE126A09AA4
:105390000201D1512DE1DF6AFD0EDBCF26F0FE0EBA
:1053A000DBCF27F0DE5226C0DEFF27C0DDFFDD5257
:1053B000DF2ADF50326E336AFF0E321802E13350BB
:1053C0000BE0010EDBCFE9FFDB2A020EDBCFEAFFA9
:1053D00001E3DB2AEF50ECE1FD0EDBCFD2F2FE0E53
:1053E000DBCFD3F2DFCFD6F20201010ED76FD16F40
:1053F000A08A030EE15C02E2E16AE552E16EE55249
:10540000E7CFD9FF1200D9CFE6FFE1CFD9FF030ED6
:10541000E126A09A0201D1512EE1DF6AFD0EDBCF19
:1054200026F0FE0EDBCF27F0DE5226C0DEFF27C0BF
:10543000DDFFDD52DF2ADF50326E336AFF0E321895
:1054400002E133500CE0010EDBCFF6FFDB2A020E47
:10545000DBCFF7FF01E3DB2A0800F550EBE1FD0E9F
:10546000DBCFD2F2FE0EDBCFD3F2DFCFD6F20201DA
:10547000D76B010ED16FA08A030EE15C02E2E16AF4
:10548000E552E16EE552E7CFD9FF1200D9CFE6FF32
:10549000E1CFD9FF020EE126A09A0201DA51DB1119
:1054A00002E1000E08D0DAC2E9FFDBC2EAFFEF50EA
:1054B000800B01E0010E000906E1030ED15D01E160
:1054C000D16BD15102E1A08A7ED0020ED15D16E1EE
:1054D000E66A000EE66EE66A010EE66E030EE66E02
:1054E00083EC21F0326E050EE15E3250F3CFDAF23A
:1054F000F4CFDBF20201030ED16F64D0D10562E17B
:10550000400E326E336AD651325C000E335803E2DD
:10551000400EDF6E02D0D6C2DFFFDF50D65DD66F01
:10552000480ED46F050ED56F010EDFCFDBFFD751CC
:1055300016E1010EDB5028E0D2C2F6FFD3C2F7FF1E
:105540000800F550D4C2E9FFD5C2EAFFEF6ED42BB4
:10555000000ED523D22BD323010EDB06EAD7010E92
:10556000DB5012E0D2C2E9FFD3C2EAFFEF50D4C24F
:10557000E9FFD5C2EAFFEF6ED42B000ED523D22B64
:10558000D323010EDB06EBD70201D65107E1400E13
:10559000DF5C02E1020E01D0030ED16FDFCFE6FF28
:1055A000480EE66E050EE66E010EE66E030EE66E22
:1055B00083EC21F0326E050EE15E3250F3CFDAF269
:1055C000F4CFDBF2A08A020EE15C02E2E16AE5526E
:0A55D000E16EE552E7CFD9FF1200AB
:0655DA0053746174757347
:1055E0003D25690D0A002135204572723A204E652D
:1055F000656420636F6D6D61206E6578742C206624
:105600006F756E643A20272563270D0A0050492CD8
:105610002531750D0A004D522C253033750D0A00C9
:105620002C25303475004100492C253033692C2558
:105630003033692C253033690D0A0021382045723A
:10564000723A20556E6B6E6F776E20636F6D6D6171
:105650006E642027256325633A2532582532582762
:105660000D0A002138204572723A20556E6B6E6F1C
:10567000776E20636F6D6D616E64202725633A2518
:105680003258270D0A002137204572723A2045789A
:10569000747261207061726D617465720D0A00210F
:1056A00036204572723A20496E76616C69642070CA
:1056B0006172616D7465722076616C75650D0A00AA
:1056C0002134204572723A204D697373696E6720E8
:1056D000706172616D657465722873290D0A00210D
:1056E00033204572723A20525820427566666572C0
:1056F000206F76657272756E0D0A00213220457238
:10570000723A20545820427566666572206F76653D
:105710007272756E0D0A002130200D0A00200800FB
:0F5720002573001B5B421B5B314B1B5B3047004B
:105730001E6AE86A2CAEA5EF2BF0296C2A1E2B1EE0
:105740002C1E2A222B222C221E1E27AEB0EF2BF05D
:10575000246C251E261E271E2522262227221E1ED9
:105760007CEC2EF027BEC7EF2BF01EAE000C246C95
:10577000251E261E271EE86A252226222722206CA7
:10578000211E221E231E212222222322000C1EBEA5
:10579000B7EF2BF01F88FF0C27C031F026C030F088
:1057A00025C02FF025502A02F4CF23F0F3CF22F0AA
:1057B00026502B02F4CF25F0F3CF24F02A02F35029
:1057C0002326F4502422E86A25222F502B02F3507E
:1057D0002326F4502422E86A252227502A02F35077
:1057E0002426F450252227502B02266AE86A262216
:1057F000F3502526F45026222F502C02F350242655
:10580000F4502522276AE86A2622272230502C02EB
:10581000F3502526F4502622E86A272231502C0224
:10582000F3502626F4502722000C27C031F026C062
:1058300030F026502B02F4CF25F0F3CF24F0275080
:105840002C02F4CF27F0F3CF26F02B02F3502526BD
:10585000F4502622E86A272230502C02F3502526E5
:10586000F4502622E86A27222CAE3BEF2CF0305071
:10587000265E3150275A31AE000C2B50265E2C503C
:04588000275A000C97
:0C58840008D80001605102E159EC22F04C
:10589000E3EC06F0F8D70F0EC11220EC06F03FEF54
:1058A00019F0120012001200120081EF28F012000D
:1058B000CFEF28F06D840101080EF46F070EF56F2D
:1058C000F407000EF55BF451F511FAE16D94120046
:1058D000D9CFE6FFE1CFD9FFFD0EDBCF26F0FE0EDC
:1058E000DBCF27F0720E261801E1275033E0E8687D
:1058F000261802E17F0E27182BE0740E261801E10E
:10590000275024E0750E261801E127501DE0730E84
:10591000261801E1275016E0030E261801E1275052
:105920000FE0020E261801E1275008E0010E2618AC
:1059300001E1275001E010D0BBDF0FD0B8DF0DD060
:10594000B4DF0BD0B0DF09D0ACDF07D0ABDF05D0C0
:10595000ABDF03D0000001D000D0010E00D0E55233
:06596000E7CFD9FF1200A1
:0A5966001E0EF66E080EF76E000E1E
:10597000F86E01010900F550EF6F0900F550F06F66
:1059800003E1EF6701D03DD00900F550EA6F09004F
:10599000F550EB6F0900F550EC6F09000900F55068
:1059A000E96E0900F550EA6E090009000900F5509A
:1059B000ED6F0900F550EE6F09000900F6CFF1F127
:1059C000F7CFF2F1F8CFF3F1EAC1F6FFEBC1F7FF41
:1059D000ECC1F8FF0101ED5302E1EE5307E00900CD
:1059E000F550EE6EED07F8E2EE07F9D7F1C1F6FFDC
:1059F000F2C1F7FFF3C1F8FF0101EF07000EF05B02
:045A0000BFD71200FA
:0C5A0400FE0EE3CFE9FFFF0EE3CFEAFF48
:105A1000E9CFF3FFEACFF4FFFB0EE35003E1FC0E06
:105A2000E35009E0FB0EE30602E2FC0EE306FD0E86
:105A3000E350EE6EF1D71200FE0EE3CFE9FFFF0E4A
:105A4000E3CFEAFFF36AF46AEE5203E0F34AF42A82
:105A5000FBD71200FF0EE3CFF8FFE552FF0EE3CFB6
:105A6000F7FFE552FF0EE3CFF6FFE552E66AE66A7E
:105A7000E66A0900F55209E0FD0EE32A05E1FE0E93
:105A8000E32A02E1FF0EE32AF4D7FD0EE3CF25F06F
:0E5A9000FE0EE3CF26F0FF0EE3CF27F012004C
:025A9E00D9CF5E
:105AA000E6FFDACFE6FFE1CFD9FFE2CFDAFFE65239
:105AB000E652E652E652D950FB0F326EFF0EDA2064
:105AC000336E32C0DEFFDD6EDECFE6FFDDCFE6FFF8
:105AD000FB0EDBCFE6FFFC0EDBCFE6FFFD0EDBCFE0
:105AE000E6FFF6C1E6FFF7C1E6FF86EC22F0326E74
:105AF000070EE15C02E2E16AE552E16E3250020E0D
:105B0000F3CFDBFF030EF4CFDBFF020EDBCF32F06F
:105B1000030EDBCF33F032C0F3FF33C0F4FF040ECB
:105B2000E15C02E2E16AE552E16EE552E5CFDAFFBF
:065B3000E7CFD9FF1200CF
:0A5B3600D9CFE6FFDACFE6FFE1CF9A
:105B4000D9FFE2CFDAFFFB0EDBCF32F0FC0EDBCF6A
:105B500033F00001800E33141AE1FB0EDBCFE9FFB6
:105B6000FC0EDBCFEAFFEECFF3FFEDCFF4FFEE2A22
:105B7000000EEF22F3CFE9FFF4CFEAFFFD0EDBCFFB
:105B8000EFFFEF50336AF36E33C0F4FF10D0FB0E1B
:105B9000DB50FE0806E1FD0EDBCFE6FFCFEC2EF07A
:105BA00005D0FD0EDBCFE6FF09EC09F0E552E5522A
:0A5BB000E5CFDAFFE7CFD9FF1200BE
:065BBA00120100020200CE
:105BC0000040D80492FD8201010200010902430055
:105BD000020100C032090400000102020100052494
:105BE000001001042402020524060001052401001E
:105BF000010705820308000209040100020A0000EF
:105C0000000705030240000007058302400000046E
:105C100003090418035300630068006D0061006C01
:105C2000007A0048006100750073000803550042C7
:0B5C3000005700CC5B0F5C135C2B5C8A
:045C3C0024502902C5
:105C4000F3CF20F0F4CF21F02A02F3502126000EEA
:105C5000F420226E24502B02F3502226000EF42052
:105C6000236E24502C02F350232625502902F35092
:105C70002126F4502222000E232225502A02F3501E
:105C80002226F450232225502B02F350232626509F
:105C90002902F3502226F450232226502A02F350E0
:0C5CA000232627502902F350232612006F
:045CAC00FF0EE124E2
:105CB000E96EFF0EE220EA6EEDCFF4FFEFCFF3FFC7
:105CC000F46607D0600EF36404D07B0EF36001D05D
:105CD000F39A1200F36AF46AFF0EE124E96EFF0EF4
:105CE000E220EA6EED6607D02F0EEF6404D03A0E84
:085CF000EF6001D0F32A12005D
:085CF800236A226A216A206A76
:105D0000200EE76ED89024362536263627362036E4
:105D10002136223623362950205C2A5021582B5018
:105D200022582C50235809E32950205E2A50215A2A
:105D30002B50225A2C50235A242AE72EE4D7120043
:105D40004F4B0D0A000D0A0055425720465720447C
:105D50002056657273696F6E20312E342E390D0A0C
:015D60000042
:0E5D6200000EF36E00EE00F0080E01D81200E5
:105D7000EA6002D0EE6AFCD7F350E9601200EE6AE6
:025D8000FCD74E
:0E5D820016EE00F026EE00F0F86A1F9CB3EC5F
:0E5D90002CF003EC04F042EC2CF0FBD71200D8
:025D9E00FF0EF6
:105DA000E350ACBA04D0AF6AAB8EAC8A949CACA280
:0A5DB000FED7AD6EF36EF46A120028
:065DBA00FF0EE350E84E6D
:105DC0001200000000D000D000D0E82EFAD7120058
:105DD0003031323334353637383961626364656661
:015DE00000C2
:0F5DE100000000000000000000000000000000B3
:105DF00000000000000000000000000000000000A3
:105E00000000000000000000000000000000000092
:105E10000000000000000000000000000000000082
:105E20000000000000000000000000000000000072
:015E30000071
:00000001FF
